{
  "fileName": "Counter.sol",
  "contractName": "Counter",
  "source": "pragma solidity ^0.5.0;\n\nimport \"@openzeppelin/contracts-ethereum-package/contracts/GSN/GSNRecipient.sol\";\nimport \"@openzeppelin/upgrades/contracts/Initializable.sol\";\n\ncontract Counter is Initializable, GSNRecipient {\n  //it keeps a count to demonstrate stage changes\n  uint private count;\n  address private _owner;\n\n  function initialize(uint num) public initializer {\n    GSNRecipient.initialize();\n    _owner = _msgSender();\n    count = num;\n  }\n\n  // accept all requests\n  function acceptRelayedCall(\n    address,\n    address,\n    bytes calldata,\n    uint256,\n    uint256,\n    uint256,\n    uint256,\n    bytes calldata,\n    uint256\n    ) external view returns (uint256, bytes memory) {\n    return _approveRelayedCall();\n  }\n\n  function owner() public view returns (address) {\n    return _owner;\n  }\n\n  // getter\n  function getCounter() public view returns (uint) {\n    return count;\n  }\n\n  //and it can add to a count\n  function increaseCounter(uint256 amount) public {\n    count = count + amount;\n  }\n\n  //We'll upgrade the contract with this function after deploying it\n  //Function to decrease the counter\n  function decreaseCounter(uint256 amount) public returns (bool) {\n    require(count > amount, \"Cannot be lower than 0\");\n    count = count - amount;\n    return true;\n  }\n\n  function setRelayHubAddress() public {\n    if(getHubAddr() == address(0)) {\n      _upgradeRelayHub(0xD216153c06E857cD7f72665E0aF1d7D82172F494);\n    }\n  }\n\n  function getRecipientBalance() public view returns (uint) {\n    return IRelayHub(getHubAddr()).balanceOf(address(this));\n  }\n\n}\n",
  "sourcePath": "contracts/Counter.sol",
  "abi": [
    {
      "anonymous": false,
      "inputs": [
        {
          "indexed": true,
          "internalType": "address",
          "name": "oldRelayHub",
          "type": "address"
        },
        {
          "indexed": true,
          "internalType": "address",
          "name": "newRelayHub",
          "type": "address"
        }
      ],
      "name": "RelayHubChanged",
      "type": "event"
    },
    {
      "constant": true,
      "inputs": [
        {
          "internalType": "address",
          "name": "",
          "type": "address"
        },
        {
          "internalType": "address",
          "name": "",
          "type": "address"
        },
        {
          "internalType": "bytes",
          "name": "",
          "type": "bytes"
        },
        {
          "internalType": "uint256",
          "name": "",
          "type": "uint256"
        },
        {
          "internalType": "uint256",
          "name": "",
          "type": "uint256"
        },
        {
          "internalType": "uint256",
          "name": "",
          "type": "uint256"
        },
        {
          "internalType": "uint256",
          "name": "",
          "type": "uint256"
        },
        {
          "internalType": "bytes",
          "name": "",
          "type": "bytes"
        },
        {
          "internalType": "uint256",
          "name": "",
          "type": "uint256"
        }
      ],
      "name": "acceptRelayedCall",
      "outputs": [
        {
          "internalType": "uint256",
          "name": "",
          "type": "uint256"
        },
        {
          "internalType": "bytes",
          "name": "",
          "type": "bytes"
        }
      ],
      "payable": false,
      "stateMutability": "view",
      "type": "function"
    },
    {
      "constant": false,
      "inputs": [
        {
          "internalType": "uint256",
          "name": "amount",
          "type": "uint256"
        }
      ],
      "name": "decreaseCounter",
      "outputs": [
        {
          "internalType": "bool",
          "name": "",
          "type": "bool"
        }
      ],
      "payable": false,
      "stateMutability": "nonpayable",
      "type": "function"
    },
    {
      "constant": true,
      "inputs": [],
      "name": "getCounter",
      "outputs": [
        {
          "internalType": "uint256",
          "name": "",
          "type": "uint256"
        }
      ],
      "payable": false,
      "stateMutability": "view",
      "type": "function"
    },
    {
      "constant": true,
      "inputs": [],
      "name": "getHubAddr",
      "outputs": [
        {
          "internalType": "address",
          "name": "",
          "type": "address"
        }
      ],
      "payable": false,
      "stateMutability": "view",
      "type": "function"
    },
    {
      "constant": true,
      "inputs": [],
      "name": "getRecipientBalance",
      "outputs": [
        {
          "internalType": "uint256",
          "name": "",
          "type": "uint256"
        }
      ],
      "payable": false,
      "stateMutability": "view",
      "type": "function"
    },
    {
      "constant": false,
      "inputs": [
        {
          "internalType": "uint256",
          "name": "amount",
          "type": "uint256"
        }
      ],
      "name": "increaseCounter",
      "outputs": [],
      "payable": false,
      "stateMutability": "nonpayable",
      "type": "function"
    },
    {
      "constant": false,
      "inputs": [],
      "name": "initialize",
      "outputs": [],
      "payable": false,
      "stateMutability": "nonpayable",
      "type": "function"
    },
    {
      "constant": false,
      "inputs": [
        {
          "internalType": "uint256",
          "name": "num",
          "type": "uint256"
        }
      ],
      "name": "initialize",
      "outputs": [],
      "payable": false,
      "stateMutability": "nonpayable",
      "type": "function"
    },
    {
      "constant": true,
      "inputs": [],
      "name": "owner",
      "outputs": [
        {
          "internalType": "address",
          "name": "",
          "type": "address"
        }
      ],
      "payable": false,
      "stateMutability": "view",
      "type": "function"
    },
    {
      "constant": false,
      "inputs": [
        {
          "internalType": "bytes",
          "name": "context",
          "type": "bytes"
        },
        {
          "internalType": "bool",
          "name": "success",
          "type": "bool"
        },
        {
          "internalType": "uint256",
          "name": "actualCharge",
          "type": "uint256"
        },
        {
          "internalType": "bytes32",
          "name": "preRetVal",
          "type": "bytes32"
        }
      ],
      "name": "postRelayedCall",
      "outputs": [],
      "payable": false,
      "stateMutability": "nonpayable",
      "type": "function"
    },
    {
      "constant": false,
      "inputs": [
        {
          "internalType": "bytes",
          "name": "context",
          "type": "bytes"
        }
      ],
      "name": "preRelayedCall",
      "outputs": [
        {
          "internalType": "bytes32",
          "name": "",
          "type": "bytes32"
        }
      ],
      "payable": false,
      "stateMutability": "nonpayable",
      "type": "function"
    },
    {
      "constant": true,
      "inputs": [],
      "name": "relayHubVersion",
      "outputs": [
        {
          "internalType": "string",
          "name": "",
          "type": "string"
        }
      ],
      "payable": false,
      "stateMutability": "view",
      "type": "function"
    },
    {
      "constant": false,
      "inputs": [],
      "name": "setRelayHubAddress",
      "outputs": [],
      "payable": false,
      "stateMutability": "nonpayable",
      "type": "function"
    }
  ],
  "bytecode": "0x60806040525b5b61000b565b6112728061001a6000396000f3fe60806040523480156100115760006000fd5b50600436106100d45760003560e01c80639e80c0741161008d578063b24f03af11610067578063b24f03af146104cf578063d3c7fb8414610516578063e06e0e2214610520578063fe4b84df146105c3576100d4565b80639e80c074146103fe578063ac5704111461042d578063ad61ccd51461044b576100d4565b806374e861d6146100da57806380274db7146101245780638129fc1c146101bf57806383947ea0146101c95780638ada066e146103965780638da5cb5b146103b4576100d4565b60006000fd5b6100e26105f2565b604051808273ffffffffffffffffffffffffffffffffffffffff1673ffffffffffffffffffffffffffffffffffffffff16815260200191505060405180910390f35b6101a16004803603602081101561013b5760006000fd5b81019080803590602001906401000000008111156101595760006000fd5b82018360208201111561016c5760006000fd5b8035906020019184600183028401116401000000008311171561018f5760006000fd5b9091929390909192939050505061060c565b60405180826000191660001916815260200191505060405180910390f35b6101c7610701565b005b61031360048036036101208110156101e15760006000fd5b81019080803573ffffffffffffffffffffffffffffffffffffffff169060200190929190803573ffffffffffffffffffffffffffffffffffffffff1690602001909291908035906020019064010000000081111561023f5760006000fd5b8201836020820111156102525760006000fd5b803590602001918460018302840111640100000000831117156102755760006000fd5b9091929390909192939080359060200190929190803590602001909291908035906020019092919080359060200190929190803590602001906401000000008111156102c15760006000fd5b8201836020820111156102d45760006000fd5b803590602001918460018302840111640100000000831117156102f75760006000fd5b909192939090919293908035906020019092919050505061081c565b6040518083815260200180602001828103825283818151815260200191508051906020019080838360005b8381101561035a5780820151818401525b60208101905061033e565b50505050905090810190601f1680156103875780820380516001836020036101000a031916815260200191505b50935050505060405180910390f35b61039e610847565b6040518082815260200191505060405180910390f35b6103bc610859565b604051808273ffffffffffffffffffffffffffffffffffffffff1673ffffffffffffffffffffffffffffffffffffffff16815260200191505060405180910390f35b61042b600480360360208110156104155760006000fd5b8101908080359060200190929190505050610888565b005b61043561089f565b6040518082815260200191505060405180910390f35b610453610973565b6040518080602001828103825283818151815260200191508051906020019080838360005b838110156104945780820151818401525b602081019050610478565b50505050905090810190601f1680156104c15780820380516001836020036101000a031916815260200191505b509250505060405180910390f35b6104fc600480360360208110156104e65760006000fd5b81019080803590602001909291905050506109ba565b604051808215151515815260200191505060405180910390f35b61051e610a5c565b005b6105c1600480360360808110156105375760006000fd5b81019080803590602001906401000000008111156105555760006000fd5b8201836020820111156105685760006000fd5b8035906020019184600183028401116401000000008311171561058b5760006000fd5b90919293909091929390803515159060200190929190803590602001909291908035600019169060200190929190505050610ac5565b005b6105f0600480360360208110156105da5760006000fd5b8101908080359060200190929190505050610bb6565b005b6000610602610d2c63ffffffff16565b9050610609565b90565b600061061c6105f263ffffffff16565b73ffffffffffffffffffffffffffffffffffffffff163373ffffffffffffffffffffffffffffffffffffffff161415156106a1576040517f08c379a00000000000000000000000000000000000000000000000000000000081526004018080602001828103825260268152602001806111936026913960400191505060405180910390fd5b6106f483838080601f016020809104026020016040519081016040528093929190818152602001838380828437600081840152601f19601f82011690508083019250505050505050610d5f63ffffffff16565b90506106fb565b92915050565b600060019054906101000a900460ff16806107265750610725610d6763ffffffff16565b5b8061073e5750600060009054906101000a900460ff16155b1515610795576040517f08c379a000000000000000000000000000000000000000000000000000000000815260040180806020018281038252602e8152602001806111e4602e913960400191505060405180910390fd5b6000600060019054906101000a900460ff1615905080156107e7576001600060016101000a81548160ff0219169083151502179055506001600060006101000a81548160ff0219169083151502179055505b6107f5610d7f63ffffffff16565b5b8015610818576000600060016101000a81548160ff0219169083151502179055505b505b565b6000606061082e610eaf63ffffffff16565b91509150610837565b9b509b9950505050505050505050565b60006033600050549050610856565b90565b6000603460009054906101000a900473ffffffffffffffffffffffffffffffffffffffff169050610885565b90565b806033600050540160336000508190909055505b50565b60006108af6105f263ffffffff16565b73ffffffffffffffffffffffffffffffffffffffff166370a08231306040518263ffffffff1660e01b8152600401808273ffffffffffffffffffffffffffffffffffffffff1673ffffffffffffffffffffffffffffffffffffffff16815260200191505060206040518083038186803b15801561092c5760006000fd5b505afa158015610941573d600060003e3d6000fd5b505050506040513d60208110156109585760006000fd5b81019080805190602001909291905050509050610970565b90565b606030506040518060400160405280600581526020017f312e302e3000000000000000000000000000000000000000000000000000000081526020015090506109b7565b90565b600081603360005054111515610a3b576040517f08c379a00000000000000000000000000000000000000000000000000000000081526004018080602001828103825260168152602001807f43616e6e6f74206265206c6f776572207468616e20300000000000000000000081526020015060200191505060405180910390fd5b8160336000505403603360005081909090555060019050610a57565b919050565b600073ffffffffffffffffffffffffffffffffffffffff16610a826105f263ffffffff16565b73ffffffffffffffffffffffffffffffffffffffff161415610ac257610ac173d216153c06e857cd7f72665e0af1d7d82172f494610ee163ffffffff16565b5b5b565b610ad36105f263ffffffff16565b73ffffffffffffffffffffffffffffffffffffffff163373ffffffffffffffffffffffffffffffffffffffff16141515610b58576040517f08c379a00000000000000000000000000000000000000000000000000000000081526004018080602001828103825260268152602001806111936026913960400191505060405180910390fd5b610bae85858080601f016020809104026020016040519081016040528093929190818152602001838380828437600081840152601f19601f8201169050808301925050505050505084848461108d63ffffffff16565b5b5050505050565b600060019054906101000a900460ff1680610bdb5750610bda610d6763ffffffff16565b5b80610bf35750600060009054906101000a900460ff16155b1515610c4a576040517f08c379a000000000000000000000000000000000000000000000000000000000815260040180806020018281038252602e8152602001806111e4602e913960400191505060405180910390fd5b6000600060019054906101000a900460ff161590508015610c9c576001600060016101000a81548160ff0219169083151502179055506001600060006101000a81548160ff0219169083151502179055505b610caa61070163ffffffff16565b610cb861109463ffffffff16565b603460006101000a81548173ffffffffffffffffffffffffffffffffffffffff021916908373ffffffffffffffffffffffffffffffffffffffff1602179055508160336000508190909055505b8015610d27576000600060016101000a81548160ff0219169083151502179055505b505b50565b600060007f06b7792c761dcc05af1761f0315ce8b01ac39c16cc934eb0b2f7a8e71414f26260001b905080549150505b90565b60005b919050565b60006000303b905060008114915050610d7c56505b90565b600060019054906101000a900460ff1680610da45750610da3610d6763ffffffff16565b5b80610dbc5750600060009054906101000a900460ff16155b1515610e13576040517f08c379a000000000000000000000000000000000000000000000000000000000815260040180806020018281038252602e8152602001806111e4602e913960400191505060405180910390fd5b6000600060019054906101000a900460ff161590508015610e65576001600060016101000a81548160ff0219169083151502179055506001600060006101000a81548160ff0219169083151502179055505b610e8873d216153c06e857cd7f72665e0af1d7d82172f494610ee163ffffffff16565b5b8015610eab576000600060016101000a81548160ff0219169083151502179055505b505b565b60006060610ed4604051806020016040528060008152602001506110fd63ffffffff16565b91509150610edd565b9091565b6000610ef1610d2c63ffffffff16565b9050600073ffffffffffffffffffffffffffffffffffffffff168273ffffffffffffffffffffffffffffffffffffffff1614151515610f7b576040517f08c379a000000000000000000000000000000000000000000000000000000000815260040180806020018281038252602c815260200180611212602c913960400191505060405180910390fd5b8073ffffffffffffffffffffffffffffffffffffffff168273ffffffffffffffffffffffffffffffffffffffff1614151515611002576040517f08c379a000000000000000000000000000000000000000000000000000000000815260040180806020018281038252602b8152602001806111b9602b913960400191505060405180910390fd5b8173ffffffffffffffffffffffffffffffffffffffff168173ffffffffffffffffffffffffffffffffffffffff167fb9f84b8e65164b14439ae3620df0a4d8786d896996c0282b683f9d8c08f046e860405160405180910390a360007f06b7792c761dcc05af1761f0315ce8b01ac39c16cc934eb0b2f7a8e71414f26260001b905082815550505b50565b5b50505050565b60006110a4610d2c63ffffffff16565b73ffffffffffffffffffffffffffffffffffffffff163373ffffffffffffffffffffffffffffffffffffffff161415156110e4573390506110fa566110f9565b6110f261111263ffffffff16565b90506110fa565b5b90565b600060606000839150915061110d565b915091565b600060606000368080601f016020809104026020016040519081016040528093929190818152602001838380828437600081840152601f19601f82011690508083019250505050505050905060006000369050905073ffffffffffffffffffffffffffffffffffffffff81830151169250829250505061118f5650505b9056fe47534e426f756e636572426173653a2063616c6c6572206973206e6f742052656c617948756247534e436f6e746578743a206e65772052656c6179487562206973207468652063757272656e74206f6e65436f6e747261637420696e7374616e63652068617320616c7265616479206265656e20696e697469616c697a656447534e436f6e746578743a206e65772052656c617948756220697320746865207a65726f2061646472657373a265627a7a72315820715e3a0314f9064896b96eaace601eead5920beb092a12a08f745044ed429d5764736f6c634300050c0032",
  "compiler": {
    "name": "solc",
    "version": "0.5.12+commit.7709ece9.Emscripten.clang",
    "optimizer": {},
    "evmVersion": "constantinople"
  }
}